:040000004DC1FECF21
:10000400FDCFFCCFFBCFFACFF9CFF8CFF7CF91C11B
:10001400F5CF71C1F3CFF2CFF1CFF0CFEFCFEECF69
:10002400EDCF0000C1C081C1400101C3C003800203
:1000340041C201C6C006800741C70005C1C581C4CD
:10004400400401CCC00C800D41CD000FC1CF81CE46
:10005400400E000AC1CA81CB400B01C9C009800807
:1000640041C801D8C018801941D9001BC1DB81DA0D
:10007400401A001EC1DE81DF401F01DDC01D801C4F
:1000840041DC0014C1D481D5401501D7C0178016B6
:1000940041D601D2C012801341D30011C1D181D005
:1000A400401001F0C030803141F10033C1F381F2DE
:1000B40040320036C1F681F7403701F5C03580344F
:1000C40041F4003CC1FC81FD403D01FFC03F803E46
:1000D40041FE01FAC03A803B41FB0039C1F981F885
:1000E40040380028C1E881E9402901EBC02B802A6F
:1000F40041EA01EEC02E802F41EF002DC1ED81ECCD
:10010400402C01E4C024802541E50027C1E781E6B5
:1001140040260022C1E281E3402301E1C021802086
:1001240041E001A0C060806141A10063C1A381A23C
:1001340040620066C1A681A7406701A5C0658064CE
:1001440041A4006CC1AC81AD406D01AFC06F806E45
:1001540041AE01AAC06A806B41AB0069C1A981A804
:1001640040680078C1B881B9407901BBC07B807A0E
:1001740041BA01BEC07E807F41BF007DC1BD81BC4C
:10018400407C01B4C074807541B50077C1B781B6B5
:1001940040760072C1B281B3407301B1C071807006
:1001A40041B00050C190819140510193C05380529D
:1001B40041920196C056805741970055C19581944C
:1001C4004054019CC05C805D419D005FC19F819E45
:1001D400405E005AC19A819B405B0199C059805886
:1001E40041980188C04880494189004BC18B818A6C
:1001F400404A004EC18E818F404F018DC04D804CCE
:10020400418C0044C184818540450187C0478046B4
:1002140041860182C042804341830041C181818083
:1002240040401027E80364000A00010000100001A8
:100234001000010000000000000000000000455212
:10024400524F5220313A2530326420323A2530322E
:100254006420333A25303264005B253032645D20FB
:10026400413A2530327820443A25303464005374BE
:10027400617274696E672E2E2E00010080C00A0020
:10028400040038020C006001720201006C017E025D
:100294000200370280020000F894EE27ECBBF1E084
:1002A400FBBFEBBFE5BF8DE0A2E0BB27ED938A95D2
:1002B400E9F780E094E0A0E6ED930197E9F7E2E83E
:1002C400F2E085919591009761F0A591B591059023
:1002D4001590BF01F00105900D920197E1F7FB0124
:1002E400F0CFEFE5EDBFE4E0EEBFC0E6D1E088C0BB
:1002F400E0E0E2BF089571D4ECB1AE2FC9D0F8DFCD
:100304001BC0AA935D9BFECFE881ECB9DCC2AA9323
:10031400BDD5EEDF00E010E0EA816DD44CF4F801C5
:10032400AB81BC816DD4AC91ECDF0F5F1F4FF4CF78
:10033400F6C253D4DDDFAFD0E991EFBFF991E99173
:10034400B991A9919991899179916991F9901990AB
:10035400099018959BD5AC85A13021F5AA81A130CF
:1003640021F4F30131963F010DC0AA81A23021F49A
:10037400F50131965F0106C0AA81A33019F4A1EBFF
:10038400B1E041D446D4E2E4F2E048D4F30149D4E4
:10039400F50147D4E091B101F091B20142D444D4C3
:1003A400A3E029C0AB81A43051F5AA81A13051F456
:1003B40041D44DD4F20131962F014CD451D434D4CC
:1003C400A0E019C0AA81A23051F434D440D4F4017D
:1003D40031964F013FD444D427D4A1E00CC0AA8164
:1003E400A33069F427D433D4F60131966F0132D4A3
:1003F40037D41AD4A2E0F2D1A1E7B1E02BD2F3C0F2
:10040400E2E0E1BBE3E0E2BBE5E0E3BFE0E0E2BF62
:10041400E1E0E9BFE0E0EBB9E8E9EAB9E6E8E0BD2C
:10042400E0E0E0BDE3E3E9B9A4E124D2A9E8B1E066
:1004340018D0ACEAB1E00FD07894A0E6B1E00AD2CB
:10044400A4EFB1E0C8D4E1E012D4E2E010D4E3E0D8
:100454000ED4F9CFFFCF18D4E0936F01F09370015D
:10046400CCC112D4E0936D01F0936E01C6C1E0914A
:100474006F01F0917001309731F00BD4E0916F016E
:10048400F0917001099502C004D47CD02B96089594
:1004940004D4BAD018C2AAD0089502D4F5D42FEF48
:1004A4003FEFEC81FD813197FED3319699F0FED375
:1004B400ED91AE83BF83E2271E2F232F3327A6E2BD
:1004C400B0E0F0E0EE0FFF1FEA0FFB1FC0D42E27B1
:1004D4003F27E7CFF901DFD428960895AA93D6D40D
:1004E400EB81FC819BD3AC81BB27D7DF8F01EA81F1
:1004F400AB81BC81F0E084D3E02FEC93EA81F0E09F
:100504003196AB81BC817CD31C93EA81EE5F07C238
:10051400AA93BAD4ED81FE8181D3EE81F0E03297C3
:10052400DF01BBDF9F01EC81F0E03297AD81BE813A
:1005340067D30C901124EC81F0E03197AD81BE813A
:100544005FD3EC91B6D3E029F1298F010217130789
:1005540011F4E0E001C0E1E09ED427960895AA9347
:10056400B2C1AA93E0916D01F0916E01309749F008
:10057400E981FA8153D3AA81E0916D01F0916E0172
:10058400099576C183D4EB81E093B401EA81E093C9
:10059400B301AC85A43039F48FD39BD3A6E09CD3AC
:1005A400A02FDFDF20C0AC85A530E9F485D3E88532
:1005B400E093B90100E010E0E8851DD374F4F8017C
:1005C400E654FE4F0F01F801AA85BB8519D3EC91BF
:1005D400D001EC930F5F1F4FEFCF7BD3A02FA95F08
:1005E4007BD3A02FBEDF59D42D960895E09133021A
:1005F400E03049F0E0E074D3E0E0E0933402E093CB
:100604003502E09336020895AA936DD3E03011F4D5
:100614006DD365C074D3A13051F4E881E093350201
:1006240065D3A091350292D0E093360258C06AD3C4
:10063400A23049F564D3A23079F4A881A83320F01C
:10064400A2E08DDFD3DF3FC151D34DD3A881EA0FA0
:10065400EE5FE093340216C058D320F4E0913402E4
:10066400E03009F40FC042D350D361F453D347D3DD
:100674004FDFE03019F44ED350D302C0A3E06FDF54
:10068400B5DF21C12CC03ED3A33089F42FD337D397
:10069400A83060F03FD3A8E03BDFE03019F43AD350
:1006A4003CD302C0A3E05BDFA1DF0DC118C02AD395
:1006B400A13089F41BD323D3A53060F02BD3A5E05C
:1006C40027DFE03019F426D328D302C0A3E047DFA4
:1006D4008DDFF9C004C0A4E042DF88DFF4C0F3C0BA
:1006E400AA936697AF89B88DEC91E8831BD3E18117
:1006F400E983EE89EA87AA85A23039F416D3EE831A
:1007040011D33396E887F9871EC0AA85A33011F068
:10071400A43029F40AD30CD30ED316D314C0AA855B
:10072400A53061F402D304D306D30ED3FBD2E68101
:10073400EE83F8D23796E887F98705C0AA85A130F9
:1007440011F4F3D2EF8305D369960895A6D2A130AC
:1007540039F0A881A23021F0A33011F0A43011F4B3
:10076400E2E0B1C0A881A53031F0A63021F0AF306D
:1007740011F0A03111F4E3E0A6C0E881E07811F0B3
:10078400E1E0A1C0E0E09FC08BD26697EA8DE883E8
:10079400E4E0EA87E983E88DF98DEA83FB83EE8957
:1007A400FF8981D2D6D26B960895AA93E8B3EF70ED
:1007B400AE2FE881E07FEA2BE8BBD4D2C29AD2D232
:1007C400C298D0D280C069D2F0DFE881E295E88394
:1007D400A881EBDF85E88A95F1F775C0AA93E881D3
:1007E400F0E0E95CFD4FE081A981AE0FECDFE98127
:1007F400E0933B02E881E0933C0222960895A2E054
:10080400B5D2ACE0E0DFA1E0B1D2E0E0E0933C029D
:10081400E0933B02089541D2AA3031F0E0913D02C9
:10082400A0913B02AE1760F0E0E0EA93A0913C0295
:10083400AF5FA0933C02D2DFA881AA3009F443C081
:10084400E0913B02EF5FE0933B02C09AA881BBDFDB
:10085400C09839C025D21A93A981BA81ED91A98390
:10086400BA831E2FE03019F0A12FD5DFF5CF188100
:1008740023960895AA93E7B3E06FE7BBBA9AB89AB0
:10088400B99AC298C098C198E881E0933D02E058B3
:10089400E0933902E881E054E0933A02A4E1B0E045
:1008A4009AD268D267D266D2A0E27FDF88EC90E069
:1008B4000197F1F7A8E287DFA4E085DFA5E883DFED
:1008C400A6E081DF9CDF21960895EAD1DFD259D2D8
:1008D4001296B9D23097F1F054D256D28F01309794
:1008E40061F00230E0E01E0770F0F80131978F01EB
:1008F400AA81BB811496ED93FC9343D2129683D1C3
:100904003197AC81A0833DD29ED2FF2312F039D21D
:100914007AD105C036D2EFEFFFEFED93FC93BDD251
:1009240025960895BDD12697ADD210E0AC85BD853E
:10093400E0E0F0E0ED93FC93EA89FB893196EA8BE1
:10094400FB8B3197E4912E2FE03009F400C1E12FA5
:10095400E03031F4253211F411E001C018D2F6C0B0
:10096400E130A1F4253211F412D2EFC012E040E0DC
:1009740000E02D3211F401E0E9C02B3211F44BE216
:10098400E5C0203211F440E2E1C002C0E23039F4A3
:1009940050E013E0203311F40068D8C003C0E33002
:1009A40009F0D4C0203310F02A3308F007C0AAE0BD
:1009B4005A9F502DE22FE0535E0FC8C0E22FE3365A
:1009C40039F4ECD1EED1EAD1A481AA93EED1BDC021
:1009D400E33741F4F0D1F1D1EE83FF8367D1E6D060
:1009E4001E2F09C0E03759F4E6D1E7D1E9D15ED131
:1009F400E8D01E2F086002600F7730E02EC0E43686
:100A040011F0E93611F4046002C0E53729F4E6E296
:100A1400F2E0D6D115E00BC0E83511F4086003C04C
:100A2400E83709F092C0E0E3F2E0CAD114E002FF33
:100A340011C0C1D1C2D1C7D1AB85AA232AF4EA859A
:100A4400FB85D7D1C0D14DE2403011F01F5F01C00A
:100A54000B7F03C0B0D1B1D1B6D100FD10C01517C2
:100A640070F407FF08C002FF04C00B7F242F11504D
:100A740001C020E301C020E28AD15150F0CF312FD0
:100A840001FF14C0303089F003FF05C0EE81FF81FF
:100A9400259196D104C00AD12D91AE83BF8377D11D
:100AA400503009F051503150EDCF46C020E3EE8173
:100AB400FF81CDD1E887F987EE81FF81329680D11D
:100AC400E885F985AA85BB85AE17BF0748F02F5F77
:100AD400A885B985EA85FB85EA1BFB0B74D1F0CFA9
:100AE4002A3328F003FF02C0295F01C0295D04FDF9
:100AF40019C0213320F4A885B985119709F409C0D8
:100B0400531710F000FF01C011C020E207FF0AC014
:100B140020E3006102FF06C00B7F4A9346D15030A8
:100B240009F0515034D1503009F051503150A8855A
:100B3400B985129708F0BACF00FF07C0503029F0EA
:100B44005150E0E2EA9331D1F9CF10E0F5CEAC8513
:100B5400BD8579D19ED164960895FF92F82E26978B
:100B640093D134D1309719F4EFEFFFEF1BC0DE01BE
:100B740016963BD18D012AD123D1E0E0E887E9879D
:100B8400DE011A9632D15FD149D01A930A93E7E66F
:100B9400F4E044D0DE011A96C5DE9F0187D0E0E080
:100BA400EC93F90178D12A96FF90089579D0A99110
:100BB400B991EE27FF276D91662311F03196FBCF93
:100BC40008956ED0AA27BB27E991F99105900020DA
:100BD40011F01196FBCFFD0108950A921A92FA9230
:100BE4006A937A938A939A93AA93BA93EA93FA9319
:100BF400EFB7EA930895D801F0E0AE17BF07089560
:100C0400AE0FBF1F0895ED91FD913196FE93EE93C3
:100C14000895E1E7F1E0FA93EA930895FA93EA93E9
:100C24000895EBD018D108958CE097DF6096E0E04A
:100C3400EA930895EA85FB8501801124AA85BB8582
:100C4400EC91FE2FE0E0E029F1298F01E2CFEDE500
:100C5400F2E0E4CF3197DF01E4E6F0E0E6D0E1CF63
:100C6400EA85FF2766277727F6D0F801DACFEA93DB
:100C7400E0E0F0E0D3DFA1E0B0E086DDABE0F0D06F
:100C840003DCA4E6B0E0A7C0BA93AA93E881F98193
:100C94000895FE01ABE0E4D00895AA93A8810895D5
:100CA400BA93AA930895EC83FD830895AE81BF811E
:100CB4000895FE2FE0E00895ED81E093B501EC8105
:100CC400E093B601EF81E093B701EE81E093B801C0
:100CD4000895E3EBF1E0A2CF01DC0E2F1127F9CF49
:100CE400E09333020895E09133020895FCDFF0E0CD
:100CF400ED50FE4FA881A083F6DFEF5FF1CFA09106
:100D040033020895A09136020895EDDFA0913402D4
:100D1400EA170895E3EFF1E081CFF4DFE1DCABE023
:100D24009FD0A5CBEF89F88D0895FCDFE28108956B
:100D3400C0DFDF01F7CFE381F0E0EA2BFB2BEA838E
:100D4400FB83F0DFE481F4CFE581F0E0EA2BFB2BB9
:100D5400AACFFE01DE011B968BE08AD0FE013B96F2
:100D64008BE008958DE08A95F1F708952CDDA3E0DA
:100D7400B0E031C0A0E319DD88EC90E00197F1F711
:100D84000895AA81BB81089514965DD008952A938D
:100D9400AD85BE85EF85F88909950895E889F989B7
:100DA40008953497E88BF98B0895AD85BE85EF855A
:100DB400F88909950895F2DFF4CFA889B989E4CFB9
:100DC400EE83FF830895EA87FB870895DE011C966E
:100DD4000CD039D00895109639F080ED97E0019742
:100DE400F1F7A8951197C9F708950024AF0DB01D28
:100DF4000895F195E195F04008956F2F660F660B05
:100E0400762F08950024112490E1AA0FBB1F001C23
:100E1400111C0E1A1F0A18F40E0E1F1E01C0A16029
:100E24009A9599F7FD01D0010895E894B7FF04C09D
:100E3400A095B09511966894F7FDDBDFE3DFFD0123
:100E44000EF4D7DF0895ED91FC9111970895059064
:100E5400F491E02D08957A936A93FA93EA930895AE
:100E6400BB27EA0FFB1F02900A921197E1F708953E
:100E74009927EF93FF9361916D930197E1F7FF91A8
:100E8400EF9108955A934A933A932A931A930A93A3
:100E940008955D814C813B812A81198108810895DF
:00000001FF
