:060000001CC1FECFFDCF84
:10000600FCCFFBCFFACFF9CFF8CFF7CF77C5F5CF37
:1000160057C5F3CFF2CFF1CFF0CFEFCFEECFEDCF85
:100026000000C1C081C1400101C3C003800241C2BA
:1000360001C6C006800741C70005C1C581C440048A
:1000460001CCC00C800D41CD000FC1CF81CE400E3A
:10005600000AC1CA81CB400B01C9C009800841C84A
:1000660001D8C018801941D9001BC1DB81DA401ABA
:10007600001EC1DE81DF401F01DDC01D801C41DC8A
:100086000014C1D481D5401501D7C017801641D6BA
:1000960001D2C012801341D30011C1D181D04010CA
:1000A60001F0C030803141F10033C1F381F24032BA
:1000B6000036C1F681F7403701F5C035803441F48A
:1000C600003CC1FC81FD403D01FFC03F803E41FE3A
:1000D60001FAC03A803B41FB0039C1F981F840384A
:1000E6000028C1E881E9402901EBC02B802A41EABA
:1000F60001EEC02E802F41EF002DC1ED81EC402C8A
:1001060001E4C024802541E50027C1E781E64026B9
:100116000022C1E281E3402301E1C021802041E0C9
:1001260001A0C060806141A10063C1A381A24062B9
:100136000066C1A681A7406701A5C065806441A489
:10014600006CC1AC81AD406D01AFC06F806E41AE39
:1001560001AAC06A806B41AB0069C1A981A8406849
:100166000078C1B881B9407901BBC07B807A41BAB9
:1001760001BEC07E807F41BF007DC1BD81BC407C89
:1001860001B4C074807541B50077C1B781B64076B9
:100196000072C1B281B3407301B1C071807041B0C9
:1001A6000050C190819140510193C05380524192B9
:1001B6000196C056805741970055C1958194405489
:1001C600019CC05C805D419D005FC19F819E405E39
:1001D600005AC19A819B405B0199C0598058419849
:1001E6000188C04880494189004BC18B818A404AB9
:1001F600004EC18E818F404F018DC04D804C418C89
:100206000044C184818540450187C04780464186B8
:100216000182C042804341830041C18181804040C8
:100226000000000001000400040026020100600135
:100236002A020000F894EE27ECBBF1E0FBBFEBBF0F
:10024600E5BF8DE0A2E0BB27ED938A95E9F780E054
:1002560094E0A0E6ED930197E9F7ECE2F2E08591F0
:100266009591009761F0A591B59105901590BF0104
:10027600F00105900D920197E1F7FB01F0CFEFE554
:10028600EDBFE4E0EEBFC0E6D1E064C4AA93E88126
:10029600E093600120C4E0916001089592D494D463
:1002A600E0936101F093620142C1AA93E981EA9366
:1002B600A981D4D28CD4A7D03AC11A93AA81ADD041
:1002C60089D411F08AD49CC0AA81A53011F0A63039
:1002D60009F406C086D4C8D07DD411F07ED490C06F
:1002E600AA81A13069F480D4EDD074D411F075D40C
:1002F60087C081D4C0D26ED411F06FD481C080C0C3
:10030600AA81A23069F470D4E7D064D411F065D420
:1003160077C071D4CED25ED411F05FD471C070C0F4
:10032600AA81A33069F460D4EBD054D411F055D42B
:1003360067C061D4DED24ED411F04FD461C060C024
:10034600AA81A43069F450D4D1D044D411F045D454
:1003560057C051D4D9D23ED411F03FD451C050C069
:10036600AA81A53099F43DD4D5D034D411F035D432
:1003760047C044D4A7D02ED411F02FD441C03BD4CB
:10038600D0D228D411F029D43BC03AC0AA81A630D5
:1003960069F434D4B5D01ED411F01FD431C02BD497
:1003A600CAD218D411F019D42BC02AC0AA81AF30F2
:1003B60099F42BD466D00ED411F00FD421C014D4E6
:1003C60081D008D411F009D41BC015D4BFD202D4F1
:1003D60011F003D415C014C0AA81A03189F415D434
:1003E60062D0F8D311F0F9D30BC0FED389D0F2D383
:1003F60011F0F3D305C0FFD3DED2ECD309F0EDD371
:1004060018812C960895FE01E2D305D132C3AA9332
:10041600A8814DD160C344D10895AA93E881F0E044
:10042600E130A0E0FA07F1F0E230A0E0FA07D1F0FF
:10043600E330A0E0FA07B1F0E430A0E0FA0791F06B
:10044600E530A0E0FA0771F0E630A0E0FA0751F0D7
:10045600EF30A0E0FA0731F0E031A0E0FA0711F042
:10046600E1E039C3E0E037C3ACD3D5D3119728F028
:10047600D2D3A13DE7E0BE0708F001C057C0E3E0D4
:1004860056C0AA931A93CAD3BCD51E2FC7D3E770FA
:1004960009F01F5FE981E11719F0E3E01881C0C296
:1004A600E0E01881BDC2AA93A981BA81E2E0B5D580
:1004B600DF01E881F0E0EA17FB0711F0E3E0A9C0ED
:1004C600E0E0A7C0AED310F0E2E0AAC2AFD310F0CE
:1004D600E2E0A6C2E0E0A4C2A4D310F0E2E0A0C22B
:1004E600A5D310F0E2E09CC2E0E09AC29AD310F0E5
:1004F600E2E096C29BD310F0E2E092C2E0E090C246
:1005060090D310F0E2E08CC291D310F0E2E088C202
:10051600E0E086C256D37FD3A030EFEFBE0719F0D6
:100526007AD3109709F402C0E3E001C0E0E0229616
:10053600089547D399D52FEF3FEFEC81FD81319791
:100546007CD3319689F0AE81BF81ED91AE83BF83B6
:10055600E2271E2F232F3327A6E2B0E0F0E070D368
:1005660066D52E273F27E9CFF90185D52896089528
:10057600AA937CD5EB81FC8168D3AC81BB27D9DFFC
:100586008F01EA81AB81BC81F0E062D3E02FEC936E
:10059600EA81F0E03196AB81BC815AD31C93EA81A3
:1005A600EE5F6BD5D5C2AA935FD5ED81FE814DD3A3
:1005B600EE81F0E03297DF01BCDF9F01EC81F0E0D5
:1005C60032970FD345D30C901124EC81F0E031978C
:1005D60008D341D343D3E029F1298F01021713072A
:1005E60011F4E0E001C0E1E046D527960895AA930C
:1005F60072C2AA93E0916101F0916201309749F0CD
:10060600E981FA8122D3AA81E0916101F091620128
:100616000995239608952AD5EB81E093A8013BDE40
:10062600E093A701AC85A230C1F4E885E093A90167
:1006360018D3E88519D364F4F801E655FE4F0F0187
:10064600F801AA85BB8507D3D001EC9312D3F1CF6D
:1006560013D3AD5F16D3CDDF20C0AC85A33089F4AC
:10066600ED81E093A901EC81E093AA01EF81E0938B
:10067600AB01EE81E093AC0108D3A6E002D3B9DF6B
:100686000CC0AC85A13049F4E985E093A901FDD2FF
:10069600A3E06EDFFAD2A5E0ACDFEFD42D96089585
:1006A600552021F055244424772466240895AA93DE
:1006B600552051F4F0DDAE2FE881EA1711F4E8D2A7
:1006C60002C0A1E094DF4FC0E1E0E51531F4788087
:1006D600DFD2A72D7DD06E2E46C0E5E0E61559F592
:1006E600E6E05E1610F4D4D225C0E6E0E51571F416
:1006F600A881A83320F0A2E07ADFD2DFECC1C8D20D
:10070600E52DA881EA0FEE5F4E2E14C0541410F4A6
:10071600442009F40FC0BCD2541461F4C1D2A52DF3
:1007260042DFE03019F4BCD2BED202C0A3E05FDFE4
:10073600B7DFD1C118C0E4E0E61589F4A9D2E8E034
:100746005E1660F0ADD2A8E02EDFE03019F4A8D234
:10075600AAD202C0A3E04BDFA3DFBDC104C0A4E060
:1007660046DF9EDFB8C1B7C1AA936697AF89B88D39
:10077600EC91E8839CD2E181E983EE89EA87AA8538
:10078600A23039F497D2EE8392D23396E887F9876E
:100796001EC0AA85A33011F0A43029F48BD28DD2C5
:1007A6008FD297D214C0AA85A53061F483D285D2A0
:1007B60087D28FD27CD2E681EE8379D23796E887CC
:1007C600F98705C0AA85A13011F474D2EF832BC036
:1007D600AA93A881AF3011F0A03111F4E5E07BC1F6
:1007E600A881A13051F0A23041F0A33031F0A430FD
:1007F60021F0A53011F0A63011F4E4E06CC1E0E080
:100806006AC16CD2E1E008C069D2E2E005C066D2F6
:10081600E3E002C063D2E4E0E983E88DEE83EE898B
:10082600FF89E887F987FE015ED26996089563D24B
:10083600E5E008C060D2E6E005C05DD2EFE002C0A8
:100846005AD2E0E1E983E88DF98DEA83FB83EE89EC
:10085600FF89F3D1FE0147D26A960895AA93669757
:10086600E1E0EA87EF89E068E983EE89EF83FE013C
:100876003AD26896089544D254D298F45BD219F4C9
:100886005CD2A0E0A08359D2FF93EF93E081EF936F
:1008960059D25BD2AF91EA2BAF91BF91EC935CD268
:1008A600EBCF5DD211F04F5F5F4F4A935CD2A9DF69
:1008B600A1C026D236D2A8F43DD219F43ED2A0E089
:1008C600A0833BD2FF93EF93E081EF93E3E6F1E061
:1008D600BCD13BD2AF91EA2BAF91BF91EC933CD206
:1008E600E9CF3DD211F04F5F5F4F4A933CD28CDF88
:1008F60081C006D216D220F439D23BD24AD2FACFE0
:100906000A9331D284DF76C0FBD10BD230F4E7E60E
:10091600F1E09BD12ED23DD2F8CF0A9324D27ADFD2
:1009260069C010D2EC81FD8190D1A9857BD036D2E9
:100936007EDF39D29EC01AD2EC81FD8186D1A88590
:10094600B9855FD02BD276DF2ED293C024978CD375
:100956002A853B85AC85BD8588279927F9016627B9
:1009660077271ED3EC83FD836E837F837AD1EC8158
:10097600FD816E817F81D901882799276ED388F4FE
:10098600E1D13A932A93F8013CD3AC89BD8960D171
:10099600AC91E02FE77019D3E170AE2F43D0DCD1D4
:1009A600E6CFEA85FB8551D1AE85BF8546DFFBD113
:1009B60062D363960895A4D1B4D1B0F4F801AA899C
:1009C600BB8949D14BD10F01F8013196AA89BB8960
:1009D60042D1F0E0E029F129AF01C8D13A932A9338
:1009E600DA010FD0D6D1E8CFEC85FD852ED1A889C6
:1009F600B98926DFABE01FD306DDE0E03AD3659682
:100A06000895DFD00BD1AC81BD811AD104D1A0836A
:100A1600B18343C0D6D0D8D0AA81BB81C8D103D375
:100A260024960895AA931ED3EF81F885E8D29F01F4
:100A3600EF81EF705E2FEE81E170EE83F901A985FB
:100A4600BA85B5D10D911C91E52FA1E0B0E0C5D2D4
:100A5600E095F0950E231F23AE81B0E0E52FBDD2C1
:100A66000E2B1F2BF901A985BA85EAD000831183C5
:100A760000D32B960895A5D0F9D2D0D0C0D2AC81A0
:100A8600BD8195D10D911C91EA81EF70D801AED24E
:100A96008F0101701070E02FF0D226960895AA9368
:100AA600E881E06CE7B98BE18A95F1F7369A349BD9
:100AB600FECF349AE4B1F5B10EC0E0E0E2BF08958E
:100AC60079D1ECB1AE2FA3DCF8DF1BC0AA935D9BF6
:100AD600FECFE881ECB921960895AA93C7D2EDDF3F
:100AE600C0D0EA81C1D044F4F801AB81BC81B0D05A
:100AF600AC91ECDFBED0F5CFC0D22AC05BD1DDDF32
:100B06008ADCE991EFBFF991E991B991A99199919F
:100B1600899179916991F990199009901895AA93FC
:100B2600A3D29FD020E030E09CD00431E0E01E0745
:100B360034F4AC81B4DF2E0F3F1F9BD0F6CFF90102
:100B460047D1E0E0F0E060EA71E4E5D17FD193D2ED
:100B560025960895E2E0E1BBE3E0E2BBE5E0E3BF12
:100B6600E0E0E2BFE1E0E9BFE0ECE7B9E3E8E6B9DF
:100B7600E0E0E0BFEBB9E8E9EAB9E6E8E0BDE0E0CD
:100B8600E0BDE3E3E9B9A3E081DBA0E7B5E086DBFE
:100B96007894A0E0C4DF8F011BD1EAE0F7ED63E2B1
:100BA6007DE3B9D153D19F01E7E6F1E04ED0E0E015
:100BB600F0E04BD0D90125DFA4E6B0E00ED1E9CFB5
:100BC600FFCFBA93AA930895E881F9810895ABE01F
:100BD60032D208951E2F10300895EA81EA93A12F8C
:100BE60064CBAD81BE810895EB81FC81FA93EA93D3
:100BF600AF81B8850895FE013196E9CFEB81FC817E
:100C0600FA93EA93A0E0B0E00895ED81FE81FA93AD
:100C1600EA93A9850895A881B9810895EA81FB819F
:100C26000895CFDFAA81BB8150970895CDDFAA81B1
:100C3600BB81AE0FBF1F51970895EC83FD830895C6
:100C4600EE0FFF1FEA0FFB1F0895FA93EA9308952C
:100C5600AE0FBF1F0895FCDFEC910895FE2FE0E074
:100C6600089500E010E00895D801F0E0AE17BF0740
:100C760008950F5F1F4F0895E7EAF1E0E6DFA02F22
:100C8600089576DC0E2F1127F7CFE7EAF1E0DDCFE6
:100C9600E52DF0E0E951FE4FA881A0835394089515
:100CA600E7EEF1E0D2CFA62D5FDD91DF06CBEF892F
:100CB600F88D0895FCDFE2810895D0DFDF01F7CFDC
:100CC600E381F0E0EA2BFB2BEA83FB83F0DFE48190
:100CD600F4CFE581F0E0EA2BFB2BAFCF72DF66970E
:100CE600E2E0EA870895DE011B968BE0ACD1FE01B7
:100CF6003B968BE0089565DF6697E3E0EA87089503
:100D06002497B0D12C853D85AE85BF858827992748
:100D1600F9016627772744D1EE83FF8368877987B1
:100D2600A0CFEE81FF8168857985D901882799272B
:100D360094D10895F801E7700895F80162D1E95D4C
:100D4600FD4F0895E5E6F1E080CFD90194DEAE2FA0
:100D5600E02FE77032D108952F5F3F4F8ACFF80119
:100D660050D1AF01E7CFA7E2B2E00895E7E8F1E09E
:100D76006CCFD9014FDEAF01D801A95DBD4FE52F7C
:100D8600F070EC93F801E85DFD4FDF01E42FEC9382
:100D960008952F5F3F4F0E5F1F4F08953FDF55DFCA
:100DA600AE81BF81089513DF2EDBE0E00895EE0FDC
:100DB600FF1F4ECF0A921A92FA926A937A938A93F7
:100DC6009A93AA93BA93EA93FA93EFB7EA9308959C
:100DD6001FD173D0DF01CB010895109639F080ED55
:100DE60097E00197F1F7A8951197C9F7089555234C
:100DF60042F4503811F4E0FF04C03196691F791FA0
:100E06006BF050E8572711F45F9373C05F3F31F0E2
:100E1600660F000C57956795752F08955F93002010
:100E26000AF073C06CC050E8192E1522880F991F5E
:100E36009527550F879550E8072E0522660F771FD1
:100E46007527550F67950895689401C0E8945F93D8
:100E5600F2DF703818F07F3F08F44BC056E1571B9D
:100E6600AAF4519558300EF4593030F0EFEFFFEFF9
:100E76006FEF7FE777F91AC077275523B9F0EE0FA2
:100E8600FF1F661F771F5A95D1F710C07727583076
:100E960028F0EF2FF62F672F5850F9CF552331F052
:100EA60076956795F795E7955A95D1F700200AF458
:100EB6007CD05F910895689401C0E89430976040B3
:100EC6007040B1F0002426F0772312F400946DD020
:100ED600172E7EE1112032F07A95EE0FFF1F661F66
:100EE600111CF9CFEF2FF62F612D5F938ADF5F91EB
:100EF6000895EE27FF27662777275F910895EFEF7E
:100F0600FFEF6FE77FEF5F910895EFEFFFEF6FE77A
:100F16007FE75F9108955F9386DF703821F4112093
:100F26000AF4EDCFF2CF903809F4E3CF0124089408
:100F3600970B1BF4D4F30020F3CF792F1F932F9335
:100F46003F934F93112411272227332744275527F0
:100F560090E2AE17BF078607410730F0AE1BBF0B06
:100F6600860B410B089401C08894551F221F331F1E
:100F7600111CAA1FBB1F881F441F9A9551F7F90120
:100F8600612D4F913F912F911F91662332F0550F9E
:100F9600EE1FFF1F661F7A9543F229DF5F910895C2
:100FA600EA0FFB1F681F791F0895F09560957095ED
:100FB600E195FF4F6F4F7F4F0895EE230E2EEA2FD8
:100FC60019F0EE0F0A94E9F70895EE230E2EEA2F94
:100FD60019F0E6950A94E9F70895EE230E2EFD0121
:100FE60021F0EE0FFF1F0A94E1F70895EE230E2E6F
:100FF600FD0121F0F695E7950A94E1F70895F69537
:10100600E795F695E795F695E795F695E7950895AC
:101016006F2F660F660B762F08956E2F6A9FF0016D
:101026006B9FF00D0895ED91FC9111970895059031
:10103600F491E02D0895BB27EA0FFB1F02900A9258
:101046001197E1F708959927EF93FF9361916D93B7
:101056000197E1F7FF91EF910895AE17BF07860755
:10106600970708955A934A933A932A931A930A93A1
:1010760008955D814C813B812A81198108810895FB
:00000001FF
